:020000040000fa
:080000000002040000000000f2
:020000040000fa
:04000800fa020000f8
:020000040000fa
:04000c003c030000b1
:020000040000fa
:040010007c0300006d
:020000040000fa
:040014001a030000cb
:020000040000fa
:040018005c03000085
:020000040000fa
:04001c00f6030000e7
:020000040000fa
:040020009c0300003d
:020000040000fa
:04002400f6030000df
:020000040000fa
:04002800f6030000db
:020000040000fa
:04002c00f6030000d7
:020000040000fa
:04003000f6030000d3
:020000040000fa
:04003400f6030000cf
:020000040000fa
:04003800f6030000cb
:020000040000fa
:04003c00f6030000c7
:020000040000fa
:04004000f6030000c3
:020000040000fa
:04004400f6030000bf
:020000040000fa
:04004800f6030000bb
:020000040000fa
:04004c00f6030000b7
:020000040000fa
:04005000f6030000b3
:020000040000fa
:04005400f6030000af
:020000040000fa
:04005800f6030000ab
:020000040000fa
:04005c00f6030000a7
:020000040000fa
:04006000f6030000a3
:020000040000fa
:04006400f60300009f
:020000040000fa
:04006800f60300009b
:020000040000fa
:04006c00f603000097
:020000040000fa
:04007000f603000093
:020000040000fa
:04007400f60300008f
:020000040000fa
:04007800f60300008b
:020000040000fa
:04007c00f603000087
:020000040000fa
:04008000f603000083
:020000040000fa
:04008400f60300007f
:020000040000fa
:04008800f60300007b
:020000040000fa
:04008c00f603000077
:020000040000fa
:04009000f603000073
:020000040000fa
:04009400f60300006f
:020000040000fa
:04009800f60300006b
:020000040000fa
:04009c00f603000067
:020000040000fa
:0400a000f603000063
:020000040000fa
:0400a400f60300005f
:020000040000fa
:0400a800f60300005b
:020000040000fa
:0400ac00f603000057
:020000040000fa
:0400b000f603000053
:020000040000fa
:0400b400f60300004f
:020000040000fa
:0400b800f60300004b
:020000040000fa
:0400bc00f603000047
:020000040000fa
:0400c000f603000043
:020000040000fa
:0400c400f60300003f
:020000040000fa
:0400c800f60300003b
:020000040000fa
:0400cc00f603000037
:020000040000fa
:0400d000f603000033
:020000040000fa
:0400d400f60300002f
:020000040000fa
:0400d800f60300002b
:020000040000fa
:0400dc00f603000027
:020000040000fa
:0400e000f603000023
:020000040000fa
:0400e400f60300001f
:020000040000fa
:0400e800f60300001b
:020000040000fa
:0400ec00f603000017
:020000040000fa
:0400f000f603000013
:020000040000fa
:0400f400f60300000f
:020000040000fa
:0400f800f60300000b
:020000040000fa
:0400fc00f603000007
:020000040000fa
:04010000f603000002
:020000040000fa
:04010400f6030000fe
:020000040000fa
:04010800f6030000fa
:020000040000fa
:04010c00f6030000f6
:020000040000fa
:04011000f6030000f2
:020000040000fa
:04011400f6030000ee
:020000040000fa
:04011800f6030000ea
:020000040000fa
:04011c00f6030000e6
:020000040000fa
:04012000f6030000e2
:020000040000fa
:04012400f6030000de
:020000040000fa
:04012800f6030000da
:020000040000fa
:04012c00f6030000d6
:020000040000fa
:04013000f6030000d2
:020000040000fa
:04013400f6030000ce
:020000040000fa
:04013800f6030000ca
:020000040000fa
:04013c00f6030000c6
:020000040000fa
:04014000f6030000c2
:020000040000fa
:04014400f6030000be
:020000040000fa
:04014800f6030000ba
:020000040000fa
:04014c00f6030000b6
:020000040000fa
:04015000f6030000b2
:020000040000fa
:04015400f6030000ae
:020000040000fa
:04015800f6030000aa
:020000040000fa
:04015c00f6030000a6
:020000040000fa
:04016000f6030000a2
:020000040000fa
:04016400f60300009e
:020000040000fa
:04016800f60300009a
:020000040000fa
:04016c00f603000096
:020000040000fa
:04017000f603000092
:020000040000fa
:04017400f60300008e
:020000040000fa
:04017800f60300008a
:020000040000fa
:04017c00f603000086
:020000040000fa
:04018000f603000082
:020000040000fa
:04018400f60300007e
:020000040000fa
:04018800f60300007a
:020000040000fa
:04018c00f603000076
:020000040000fa
:04019000f603000072
:020000040000fa
:04019400f60300006e
:020000040000fa
:04019800f60300006a
:020000040000fa
:04019c00f603000066
:020000040000fa
:0401a000f603000062
:020000040000fa
:0401a400f60300005e
:020000040000fa
:0401a800f60300005a
:020000040000fa
:0401ac00f603000056
:020000040000fa
:0401b000f603000052
:020000040000fa
:0401b400f60300004e
:020000040000fa
:0401b800f60300004a
:020000040000fa
:0401bc00f603000046
:020000040000fa
:0401c000f603000042
:020000040000fa
:0401c400f60300003e
:020000040000fa
:0401c800f60300003a
:020000040000fa
:0401cc00f603000036
:020000040000fa
:0401d000f603000032
:020000040000fa
:0401d400f60300002e
:020000040000fa
:0401d800f60300002a
:020000040000fa
:0401dc00f603000026
:020000040000fa
:0401e000f603000022
:020000040000fa
:0401e400f60300001e
:020000040000fa
:0401e800f60300001a
:020000040000fa
:0401ec00f603000016
:020000040000fa
:0401f000f603000012
:020000040000fa
:0401f400f60300000e
:020000040000fa
:0401f800f60300000a
:020000040000fa
:0401fc00f603000006
:020000040000fa
:04020000f603000001
:020000040000fa
:04020400f6030000fd
:020000040000fa
:04020800f6030000f9
:020000040000fa
:04020c00f6030000f5
:020000040000fa
:04021000f6030000f1
:020000040000fa
:04021400f6030000ed
:020000040000fa
:04021800f6030000e9
:020000040000fa
:04021c00f6030000e5
:020000040000fa
:04022000f6030000e1
:020000040000fa
:04022400f6030000dd
:020000040000fa
:04022800f6030000d9
:020000040000fa
:04022c00f6030000d5
:020000040000fa
:04023000f6030000d1
:020000040000fa
:04023400f6030000cd
:020000040000fa
:04023800f6030000c9
:020000040000fa
:04023c00f6030000c5
:020000040000fa
:04024000f6030000c1
:020000040000fa
:04024400f6030000bd
:020000040000fa
:04024800f6030000b9
:020000040000fa
:04024c00f6030000b5
:020000040000fa
:04025000f6030000b1
:020000040000fa
:04025400f6030000ad
:020000040000fa
:04025800f6030000a9
:020000040000fa
:04025c00f6030000a5
:020000040000fa
:04026000f6030000a1
:020000040000fa
:04026400f60300009d
:020000040000fa
:04026800f603000099
:020000040000fa
:04026c00f603000095
:020000040000fa
:04027000f603000091
:020000040000fa
:04027400f60300008d
:020000040000fa
:04027800f603000089
:020000040000fa
:04027c00f603000085
:020000040000fa
:04028000f603000081
:020000040000fa
:04028400f60300007d
:020000040000fa
:04028800f603000079
:020000040000fa
:04028c00f603000075
:020000040000fa
:04029000f603000071
:020000040000fa
:04029400f60300006d
:020000040000fa
:04029800f603000069
:020000040000fa
:04029c00f603000065
:020000040000fa
:0402a000f603000061
:020000040000fa
:0402a400f60300005d
:020000040000fa
:0402a800f603000059
:020000040000fa
:0402ac00f603000055
:020000040000fa
:0402b000f603000051
:020000040000fa
:0402b400f60300004d
:020000040000fa
:0402b800f603000049
:020000040000fa
:0402bc00f603000045
:020000040000fa
:0402c000f603000041
:020000040000fa
:0402c400f60300003d
:020000040000fa
:0402c800f603000039
:020000040000fa
:0402cc00f603000035
:020000040000fa
:0402d000f603000031
:020000040000fa
:0402d400f60300002d
:020000040000fa
:0402d800f603000029
:020000040000fa
:0402dc00f603000025
:020000040000fa
:0402e000f603000021
:020000040000fa
:0402e400f60300001d
:020000040000fa
:0402e800f603000019
:020000040000fa
:0402ec00f603000015
:020000040000fa
:0402f000f603000011
:020000040000fa
:0402f400f60300000d
:020000040000fa
:0402f800f603000009
:020000040000fa
:0402fc00f603000005
:020000040000fa
:04030000f603000000
:020000040000fa
:04030400f6030000fc
:020000040000fa
:04030800f6030000f8
:020000040000fa
:04030c00f6030000f4
:020000040000fa
:04031000f6030000f0
:020000040000fa
:04031400f6030000ec
:020000040000fa
:04031800f6030000e8
:020000040000fa
:04031c00f6030000e4
:020000040000fa
:04032000f6030000e0
:020000040000fa
:04032400f6030000dc
:020000040000fa
:04032800f6030000d8
:020000040000fa
:04032c00f6030000d4
:020000040000fa
:04033000f6030000d0
:020000040000fa
:04033400f6030000cc
:020000040000fa
:10040000af0321000eff26000e018800000000004f
:10041000000020000000e000020032000001200087
:100420002002880014000700f20007000000e0002e
:1004300003003a0060332100010020000200370071
:100440000000200001002000810f70000100320038
:100450000f000700000020000000e0000200320052
:100460000000020000000000e00f02000000000099
:100470000040da000000fe00200020000000e00044
:1004800002003200100020009001880000000600e9
:10049000a1028800800478000000eb001f003700f4
:1004a000e284440054a0b4009905ba00e2844400f8
:1004b00054a0b4009906ba00e284440054a0b400e9
:1004c0000006eb00476fde00fd07b200ae018800ba
:1004d000636ce10003003a000ad801000000eb0061
:1004e0000e003700606ce10008003a00004deb00a0
:1004f0000a05e800020039003420ec000af0a000f0
:100500008b05e900f9ff3e00040037006168e10057
:10051000010032000086eb000b00070019c7ba008b
:100520001905ba000e04e00003003a000a00e000da
:10053000dbff3a0000000600fe07b200ae028800b2
:100540008a047800f5ff37000cd0a300e20f4d00bd
:100550001c00390089027800354dba000a05e80010
:10056000020039003420ec000af0a0008b05e900fd
:100570000f003200254dba000a05e80002003900dc
:100580003420ec000af0a0008b05e90008003200de
:100590000c00e0000600320015cdba000a05e800a4
:1005a000020039003420ec000af0a0008b05e900bd
:1005b0008984e80054a0b4000b00e000e2ff3a0098
:1005c000000006009902ba00055d78008b05e9007d
:1005d000f7ff3200c82ade00055d78008b05e900d0
:1005e000f3ff32000c00e000f1ff320019ddba0029
:1005f000eeff37003600f800809fbe00829fbe00ed
:10060000849fbe00869fbe000000fa00c028a9009b
:100610000000eb00340807000080fa004f03be0022
:100620004f02be004f01be004f00be003600f90071
:10063000004006003600f800809fbe00829fbe008a
:10064000849fbe00869fbe000000fa002b080700b2
:10065000c048a90010002000230807000080fa000d
:100660004f03be004f02be004f01be004f00be0050
:100670003600f900004006003600f800809fbe00fa
:10068000829fbe00849fbe00869fbe000000fa00cd
:10069000c068a90020002000130807000080fa00ad
:1006a0004f03be004f02be004f01be004f00be0010
:1006b0003600f900004006003600f800809fbe00ba
:1006c000829fbe00849fbe00869fbe000000fa008d
:1006d000c088a90030002000030807000080fa004d
:1006e0004f03be004f02be004f01be004f00be00d0
:1006f0003600f900004006003600f800809fbe007a
:10070000829fbe00849fbe00869fbe000000fa004c
:10071000c608a90070002000f30707000080fa0057
:100720004f03be004f02be004f01be004f00be008f
:100730003600f900004006003600f800809fbe0039
:10074000829fbe00849fbe00869fbe000000fa000c
:100750002146800000102000008060000000e000c2
:1007600003003200c508a900c0002000de07070012
:100770002146800000002800008060000000e000aa
:1007800003003200c5e8a90080002000d60707005a
:100790002146800000022000008060000000e00090
:1007a00003003200c4a8a90090002000ce07070073
:1007b00020468000700060000000e000030032006e
:1007c000c488a900a0002000c707070020468000b9
:1007d000610060000000e00003003200c408a900ce
:1007e000b0002000c0070700ffff37000040da001c
:0807f0000000fe0000000500fe
:020000040000fa
:1007f8000e00fa003faea8007d02070000000000ce
:100808000000000050400a001e00000086400a0058
:100818001e0600001e40900031400a00000700003c
:10082800104798001e40900064400a000003000032
:10083800104798002e40900010400a000003000066
:10084800204798001e0090000020a0001007980084
:100858001e0090000030a000100798001e009000b5
:100868000040a100100798001e0090000050a00052
:10087800100798000e00780075020700ae0090007f
:1008880000802f00008060000080a00020079800f2
:10089800ae009000f07f20000080600020079800e4
:1008a800be00900000802f00008060003007980094
:1008b800be009000f07f2e00008060003007980096
:1008c8003e00900000d0a100300798006400470067
:1008d800800078000000eb00d302070064004700a6
:1008e8008000780010002000cf0207006400470055
:1008f8008000780020002000cb0207006400470039
:100908008000780030002000c7020700640047001c
:100918008000780040002000c30207006400470000
:100928008000780050002000bf020700ce00900031
:1009380000802f0080806000f03f200001007000e0
:1009480040079800ce009000f07f200000806000f3
:1009580040079800de00900000802f0000806000b3
:1009680050079800de009000f07f2e0000806000a5
:100978005007980068004700800078000000eb00ee
:10098800610307006800470080007800100020001d
:100998005d030700ee009000c0ff2f00008060009c
:1009a80060079800ee00900030ff2f000080600084
:1009b800600798006e0090000040a0006007980053
:1009c8006c004700e9030700f00f2000fe01070054
:1009d80010002000180407000000eb002a0407009c
:1009e8000080fa00000006000200fa00c0c2b3004e
:1009f800920407000080fb00000f78001e007800ba
:100a08000080fa00000006000200fa00881f780043
:100a1800000478003faea90000cab3003c070700f5
:100a28000040eb003a070700004f78000040eb0059
:100a3800370707003faea8001e0c780008007800b2
:100a48004f0478000080fa00000006001e00fa003b
:100a5800300f9800410f9800520f9800435f98009c
:100a68000040eb00004f78003e0890000000e000d6
:100a780003003200e10f5000040032000600370086
:100a880010c6b300104798000600370010c7b3001f
:100a9800104798000300370010c6b30010479800ad
:100aa800000000004e589000654f40001e4078003e
:100ab800ed4f500002003600d0c0b300004f780060
:100ac800640047001e417800800078001e409000b6
:100ad8006804070000000000000000005e4090006d
:100ae800205798001e08900075800a00000000003a
:100af8000080fb00f17f200001006000ce0890001c
:100b0800a0000a00110000004e08900010007800b4
:100b1800a0800a0000000000800078004e4090008d
:100b28000080fb004300dd0080804000f07f200053
:100b3800808060004e089000a0010a0010000000ac
:100b48007e4090000080fb008000eb00f2ff2f0049
:100b580033002000800278008100780002027800cb
:100b68000300780004826200008060008000eb00cf
:100b7800c000dd00000020000001be006120b800b8
:100b880000017100818171000200be004e099000d1
:100b980010019800810078002200900010010a00de
:100ba80000000000200198004e09900012009000fb
:100bb8002201900010810a00020000000001be001e
:100bc8006e4090000082fb008002eb004828dd00a8
:100bd800c820de00810070004820dd0002014000ce
:100be80083814800f0ff2f003100200002027800c6
:100bf8000301780080017800010078000302620098
:100c0800000061008000eb00c000dd000000200053
:100c18000001be006120b8000001710081817100ef
:100c28004e0890001200980003017800a000900080
:100c380010020a0001000000210098004e099000ef
:100c4800120090002201900010810a0002000000aa
:100c58000001be001e08900010800a00000000007d
:100c68000080fb008000eb00c000dd0000002000d9
:100c78000201400083814800f0ff2f00310020006e
:100c880002027800030178008001780001007800f2
:100c980003026200000061008000eb00c000dd007c
:100ca800000020000001be006120b80000017100b2
:100cb800818171004e0890001200980003017800ad
:100cc800a000900010020a00010000002100980016
:100cd8000e489000405798001e08900033810a0083
:100ce800000000004e0890008180fb00e180600059
:100cf800c408dd00300190000240a100828070002d
:100d0800310098001e08900044810a00000000008d
:100d18004e0890008180fb00e1806000c608dd007d
:100d2800300190000260a1008280700031009800bc
:100d38002e08900030800a0000000000ce089000c5
:100d4800000178006140900030020a0000000000b5
:100d5800e04098002e08900066810a00000000001c
:100d68004e0890008180fb00e1806000c508dd002e
:100d7800300190000250a10082807000310098007c
:100d88002e08900044810a00000000004e089000e0
:100d98008180fb00e1806000c708dd003001900021
:100da8000270a10082807000310098002e08900027
:100db80055810a00000000004e0890008180fb0069
:100dc800e1806000c808dd00300190000280a100c9
:100dd80082807000310098000000eb001007980036
:100de8000b003700de0890001e00900000804000d5
:100df8009e009000e580400081004700c1409000bf
:100e0800014878001e0090000000e80010079800d4
:100e18001e80fb0065005000800078001e009000d6
:100e2800808f5000efff3e0000000000000000002f
:100e38000080fa00000006002400fa00600f980005
:100e4800710f980002179800236798006000b80097
:100e580030079800410798000040eb00004f7800e9
:100e680000000000000000007e08900010007800dc
:100e7800a0800a00000000004380de00cf80de0072
:100e880030079800410798001e80fb00be009000c4
:100e98008140780000004700214898001e4fe80074
:100ea8000040eb00005f98007e089000100078007a
:100eb800a0800a0000000000004078006740600041
:100ec80067406000674060000080fb0067006000ca
:100ed8004500dd004e099000f1f12f00810061000e
:100ee80001007000400f98007e08900030009000cc
:100ef80044800a00000000000080fb0061006000e0
:100f08004300dd00ce0890000130a1000100700010
:100f1800400f98007e099000120090002201900076
:100f280010810a00020000004008de0001002000d5
:100f380030079800410798003e0090000040780074
:100f48006340600063406000634060000080fb0015
:100f5800630060004e099000c1ff2f00810061000e
:100f680001007000400f98001e80fb008e58900012
:100f780000004700214898001e4fe8007e099000b5
:100f8800120090002201900010810a000200000067
:100f98004809dd004800de0000007100c808de00d6
:100fa80030079800410798001e80fb00be009000a3
:100fb8008140780000004700214898001e4fe80053
:100fc8009e81fb007e099000120090002201900093
:100fd80010810a00020000008040780003004700ea
:100fe800214898001e4fe8000040eb00205f980061
:100ff8007e0890003000900030800a000000000059
:101008000080fb006f0060005e09900001ff2f0068
:101018008100610001007000500f98007e08900068
:101028003000900055800a00000000000080fb009e
:10103800610060004600dd00de0890000160a1004c
:1010480001007000500f98001e80fb00ae58900001
:1010580000004700214898001e4fe8000040eb00c0
:10106800104798002e6090000080fb001007980041
:101078001e009000e80f500002003600800020009b
:10108800100798000040eb00104798000c0037004c
:101098001e80fb009e4090008180fb000e11900096
:1010a80081004100914078000000470021489800e5
:1010b8001e4fe8001e4090000040e80010479800ce
:1010c8001e4090008080fb001e009000808f500022
:1010d800efff39006e089000e10f50000800320061
:1010e800e10f500003003900e20f50000700320002
:1010f8000900370010c3b3004047980009003700c3
:1011080010c4b300404798000600370010c5b3006c
:10111800404798000300370010c3b30040479800c9
:10112800000000006a0047001e4178008000780037
:101138004e409000940207000080fa00000006006c
:101148000400fa00100798000040eb00004f7800f8
:1011580000000000000000001e009000e10f500099
:1011680008003200e10f500003003900e20f500080
:10117800070032000900370010c8b300004f78009c
:101188000900370020c8b300004f78000600370078
:1011980040c8b300004f78000300370010c8b30000
:1011a800004f7800000000003faea9001e40780004
:1011b800570507003faea80000000000000000002f
:1011c8000080fa00000006000200fa00000f780014
:1011d8001e007800004078000041eb008040780055
:1011e800c0c2b300850207000080fa0000000600b4
:1011f8000400fa003faea90000ccb3004405070084
:101208003faea800803e200001002000008fbe00f5
:10121800000000001e0090001e00700000f0a700f3
:101228000000ea000000ea004f00de0000407800fd
:101238000081eb008081eb001e0f41005e974900a2
:101248000004e000f3ff3a000080fa000000060006
:101258000800fa00300798003e009000100078005f
:1012680050800a00000000008080fb00f00320008e
:10127800008060001e01780001fc2f0081006100e1
:1012880001007000000f78003e00900010009000f0
:1012980010800a00000000000080fb00630060006e
:1012a8004600dd001e017800f1f32f008100610087
:1012b80001007000000f78003e00900010007800d8
:1012c80086800a00000000000080fb0067006000c4
:1012d8001e01900081ff2f00810061000100700055
:1012e800100798003e00900010007800b9800a00ae
:1012f800000000000080fb00670060004300dd0084
:101308001e01900071fc2f00810061000100700037
:10131800100798003e0090001000900022800a00fc
:10132800000000000080fb00610060004600dd0056
:101338009e0090000160a100010070001007980055
:101348003e0090001000900033800a00000000006a
:101358000080fb00610060004700dd009e009000f7
:101368000170a10001007000100798003e00900075
:1013780010007800ec800a00000000000080fb00ec
:10138800670060002e01900081ff2f00810061003e
:1013980001007000200798003e00900010009000a7
:1013a80055800a00000000000080fb00610060001a
:1013b8004600dd00ae0090000160a1000100700051
:1013c800200798003e0090001000900044800a001a
:1013d800000000000080fb00610060004700dd00a5
:1013e800ae0090000170a100010070002007980075
:1013f8001e40780080407800a0c2b300d5010700e5
:101408002e4090008040780090c2b300d1010700c0
:101418004e4090008040780080c2b300cd010700a4
:101428000080fa00000006001200fa007007980019
:10143800010f98006000b800100798002107980075
:101448000040eb006047980000000000000000002a
:101458000e08900010007800a0800a00000000002c
:101468004380de00cf80de00100798002107980037
:101478006e4090000080fb009e0090008140780044
:1014880000004700714098006e4090000040e8005e
:10149800604798000040eb00404f98000e0890000d
:1014a80010007800a0800a000000000000407800ca
:1014b8006740600067406000674060000080fb0094
:1014c800670060004500dd006e019000f1f12f001b
:1014d8008100610001007000600798000e0890000c
:1014e80010009000dd800a00000000000080fb0072
:1014f800610060004300dd00ee0090000130a100b3
:1015080001007000600798000e09900092017800b1
:10151800cb19de0092029000f47f20000482620062
:101528004522dd00848171000300780012019000db
:10153800cb810a00020000004008de000100200004
:1015480010079800210798001e00900000407800be
:101558006340600063406000634060000080fb00ff
:10156800630060006e019000c1ff2f0081006100e0
:1015780001007000600798006e4090000080fb003a
:10158800ce48900000004700714098006e409000df
:101598000040e800604798000e099000920178002a
:1015a800cb19de0092029000f47f200004826200d2
:1015b8004522dd008481710003007800120190004b
:1015c800cb810a00020000004809dd004800de0067
:1015d80000007100c808de00100798002107980075
:1015e8006e4090000080fb009e00900081407800d3
:1015f80000004700714098006e4090000040e800ed
:10160800604798006e4090008081fb000e099000b2
:10161800120278004b22de0012039000f57f2000b2
:1016280085026300c52add00050272000400780007
:1016380012019000cb810a0002000000804078006f
:1016480003004700714098006e4090000040e80099
:10165800604798007e009000e20f500014003200ae
:10166800e20f500005003e000000e0000a003200d2
:10167800e10f50000b00320019003700e40f500052
:1016880011003200e40f50000c003900e50f500043
:1016980010003200120037000040eb00004f7800c5
:1016a8001200370040c0b300004f78000f00370029
:1016b80080c0b300004f78000c00370000c1b300b1
:1016c800004f78000900370040c1b300004f780090
:1016d8000600370080c1b300004f780003003700d0
:1016e8000040eb00004f7800000000006700470052
:1016f80042c0b300800078001e4078002201070035
:101708000080fa00000006001200fa007007980036
:10171800010f98006000b800100798002107980092
:101728000040eb0060479800000000000000000047
:101738000e08900010007800a0800a000000000049
:101748004380de00cf80de00100798002107980054
:101758006e4090000080fb009e0090008140780061
:1017680000004700714098006e4090000040e8007b
:10177800604798000040eb00404f98000e0890002a
:1017880010007800a0800a000000000000407800e7
:101798006740600067406000674060000080fb00b1
:1017a800670060004500dd006e019000f1f12f0038
:1017b8008100610001007000600798006e009000d1
:1017c8000030a100600798000e099000920178008f
:1017d800cb19de0092029000f47f200004826200a0
:1017e8004522dd0084817100030078001201900019
:1017f800cb810a00020000004008de000100200042
:1018080010079800210798001e00900000407800fb
:101818006340600063406000634060000080fb003c
:10182800630060006e019000c1ff2f00810061001d
:1018380001007000600798006e4090000080fb0077
:10184800ce48900000004700714098006e4090001c
:101858000040e800604798000e0990009201780067
:10186800cb19de0092029000f47f2000048262000f
:101878004522dd0084817100030078001201900088
:10188800cb810a00020000004809dd004800de00a4
:1018980000007100c808de001007980021079800b2
:1018a8006e4090000080fb009e0090008140780010
:1018b80000004700714098006e4090000040e8002a
:1018c800604798006e4090008081fb000e099000f0
:1018d800120278004b22de0012039000f57f2000f0
:1018e80085026300c52add00050272000400780045
:1018f80012019000cb810a000200000080407800ad
:1019080003004700714098006e4090000040e800d6
:10191800604798007e0090000000e000030032005d
:10192800e10f5000040032000600370000c2b30087
:10193800004f78000600370040c2b300004f78001f
:101948000300370000c2b300004f78000000000019
:101958006700470042c0b300800078001e4078004e
:10196800890007000080fa00000006000600fa005f
:10197800200798000040eb00004f78002e009000f0
:101988001000780010800a00000000000080fb00b2
:10199800630060004500dd001e017800f1f92f00aa
:1019a8008100610001007000000f78002e00900097
:1019b8001000780044800a00000000000080fb004e
:1019c800610060004200dd009e0078000120a10057
:1019d80001007000000f78001e40780080407800f9
:1019e80000c6b3005b0007000040eb0020479800ea
:1019f8002e0090001000780032800a0000000000dd
:101a08000080fb00630060004500dd001e019000bf
:101a1800f1f92f00810061000100700010079800a3
:101a28002e4090008040780000c7b30049000700ae
:101a38000080fa00000006000200fa00000f78009b
:101a48001e0078000040780000c1eb00804078005c
:101a5800b0c2b300690007000080fa000000060069
:101a68000200fa00000f78001e007800004078009d
:101a78000041eb0080407800b0c2b3005f0007006f
:101a88000080fa00000006000600fa00200798000f
:101a980000000000f0c0b30068000700004f7800a5
:101aa8002e00900000407800674060000080fb0036
:101ab800670060004500dd001e017800f1f12f008d
:101ac8008100610001007000000f78001e4078005e
:101ad80080407800f0c0b3001e000700e0c0b300eb
:101ae800560007002047980005003700e0c0b30003
:101af8005200070020479800000000000000000086
:101b08001e00900075810a00000000001e00780089
:101b180075800a000000000080cf5000f3ff3a00f3
:101b28000080fa00000006000200fa000000000031
:101b3800e0c0b30041000700004f78001e007800a5
:101b480075800a00000000000080fb000080fa0099
:101b5800000006000200fa00004f780011479800c4
:101b68003faea90020c0b300e90207001e4078007c
:101b7800e70207001e409000e50207003faea800fc
:101b88000080fa00000006000800fa0020479800cc
:101b980021079800624798003faea90020c0b30013
:101ba800db0207002e409000d90207000040eb003e
:101bb800004f78000a0037001e80fb00ae0090003e
:101bc8000080400090407800114798000000000015
:101bd800000000001e409000cd0207001e4fe800e4
:101be8006e4090009e40780080cf5000f2ff390090
:101bf8003faea8000080fa00000006000400fa00ca
:101c0800004f780011479800224798003faea9007e
:101c180050c0b300be0207001e407800bc02070097
:101c28001e409000ba0207002e409000b80207003c
:101c38003faea8000080fa00000006000400fa0089
:101c4800204798003faea90030c0b300b00207009b
:101c58002e409000ae0207000040eb00ac020700e7
:101c6800004f78003faea8001e4078000080fa00c0
:101c7800000006000800fa00204798002107980095
:101c8800624798003faea90030c0b300a002070029
:101c98002e4090009e0207000040eb00004f7800a5
:101ca8000b0037000040eb0099020700104798002e
:101cb80000000000000000001e80fb00ae00900045
:101cc800008040009e409000014878001e4fe800c8
:101cd8006e4090009e40780080cf5000f1ff3900a0
:101ce8003faea8000080fa00000006000000fa00dd
:101cf800ae22ef00b022ef00b422ef0090002000e7
:101d0800e0158800c022ef00c222ef00c422ef00d5
:101d1800c622ef0010122800601588000080fa0023
:101d2800000006000400fa00000f78001107980070
:101d380000000000a0158000620060000000e000c4
:101d4800fcff3a001e007800104078000080fb007d
:101d5800c015880000000000a115800000022000c6
:101d6800008060000000e000fbff3a00c015800022
:101d7800804078001e009000014878000080fa003a
:101d8800000006001800fa00100f9800210f9800b4
:101d9800320f98000000eb00000f78000000eb0005
:101da800100798000000eb00700798000000eb0097
:101db800000f980010002000600798001e0890008f
:101dc8000000e00005003a000000eb005007980012
:101dd800700047002007980004003700ee009000cc
:101de800510798009e089000210798003e0890002f
:101df8000000e00005003a000000eb0040079800f2
:101e08006e0047003007980005003700ee0090008c
:101e180041079800be0890003107980000000000b4
:101e2800a0158000620060000000e000fcff3a009e
:101e38001d003700a0158000620060000000e0006f
:101e480009003a002e009000104078000080fb0046
:101e5800c0158800ae0090005e0090000080400031
:101e6800200798001e0fe800a1158000000220003e
:101e7800008060000000e0000b003a00c015800000
:101e8800804078003e00900001487800be00900035
:101e98004e00900000804000300798001e0090001f
:101ea8000000e800100798002e0890009e007800b7
:101eb800808f5000dfff390010003700a115800027
:101ec80000022000008060000000e0000b003a00e3
:101ed800c0158000804078003e00900001487800de
:101ee800be0090004e00900000804000300798002f
:101ef8001e0090000000e800100798009e00900067
:101f08002e089000808f5000ecff39001e007800ea
:101f18000080fa00000006000400fa00204798003c
:101f28000e80e8008e0078007eff07001e407800d3
:101f38000080fa00000006000600fa00000f780092
:101f480011079800220798002e0190009e0090002b
:101f58001e0078008bff07000080fa0000000600d2
:101f68000000fa00611580000080200000806000f9
:101f78000000e000020032002000200008003700c6
:101f88006115800000402000008060000000e00033
:101f98000200320010002000010037000000eb00b2
:101fa8000080fa00000006000000fa00a01580007a
:101fb8000080fa00000006001200fa009f010700e6
:101fc8000bfa07000430ef000a0037002080800079
:101fd8008040eb00017778002080800000004700f7
:101fe8008040eb0001489800208080000000e80055
:101ff8002080880020808000e70f5000f3ff360023
:102008009181800000802f00008060000080a00087
:10201800908188000000eb00a0818800b1818000d9
:10202800c0ff2f0000806000b0818800c18180005f
:1020380000ff2f00008060000000a000c081880021
:10204800c08180000040a100c0818800c08180005c
:102058000050a100c081880000242400f100200065
:102068009101070060fa0700108088000000000056
:102078000000000010808000620060000000e000a6
:10208800280032006800470013c0b3000001780040
:10209800a1022100100020006cfa070000000000d7
:1020a80000000000000000002000200046fc07009f
:1020b8000e489000004f78007000470052fa070061
:1020c8008e089000018088000000000000000000d9
:1020d80000808000640060000000e000f6ff3a0025
:1020e800000000000000000000000000c081800027
:1020f80030800a0000000000804178000e0178005e
:10210800210321000000eb004bfb0700000000004a
:10211800000000000000eb0009fc070000000000c0
:102128000000000000000000000000001080800097
:1021380061006000004078000004e00028003200e0
:102148006800470013c0b30000017800a102210015
:102158000000eb003dfa070000000000000000004e
:10216800000000001000200017fc07000e48900037
:10217800004f78007000470023fa07008e0890008f
:10218800018088000000000000000000008080003e
:10219800640060000000e000f6ff3a000000000064
:1021a8000000000000000000c081800030800a00ac
:1021b80000000000804178000e0178002103210012
:1021c8000000eb001cfb07000000000000000000fe
:1021d8000000eb00dafb0700000000000000000030
:1021e80000000000000000009bff37000000fa001c
:1021f800007c80000080fa00000006000200fa005f
:10220800faff0700000f78001e007800240007007e
:102218000004e000020032000000280071000700fe
:102228001e0078002a0007000004e00002003200c7
:10223800000024006b0007001e0078003200070031
:102248000004e000020032000020200065000700c2
:102258001e0078003a0007000004e0000200320087
:10226800000820005f0007001e00780042000700f9
:102278000004e000020032000004200059000700ba
:102288001e0078004a0007000004e0000200320047
:1022980000012000530007000080fa00000006003b
:1022a8000400fa00100798000040eb00004f780087
:1022b8001e0090000000e00002003d0010c0b300c6
:1022c800004f78001e4078000080fa0000000600e9
:1022d8000400fa00100798000040eb00004f780057
:1022e8009e00900000002400008060000000e000d4
:1022f8000200320010c0b300004f78001e40780082
:102308000080fa00000006000400fa001007980098
:102318000040eb00004f78009e0090000020200055
:10232800008060000000e0000200320010c0b3002e
:10233800004f78001e4078000080fa000000060078
:102348000400fa00100798000040eb00004f7800e6
:102358009e00900000082000008060000000e0005f
:102368000200320010c0b300004f78001e40780011
:102378000080fa00000006000400fa001007980028
:102388000040eb00004f78009e0090000004200001
:10239800008060000000e0000200320010c0b300be
:1023a800004f78001e4078000080fa000000060008
:1023b8000400fa00100798000040eb00004f780076
:1023c8001e009000700060000000e0000200320073
:1023d80010c0b300004f78001e4078000080fa005b
:1023e800000006000200fa00000f78009e80ea0054
:1023f800007c800000806000007c88000080fa007b
:10240800000006000000fa00802fef000080fa00ac
:10241800000006000000fa0010002300307c88004d
:10242800800c2000407c88008c2fef0010042000d6
:10243800507c880010102000707c88006009200003
:10244800807c880010042000907c88009a2fef0080
:10245800b82fef00ba2fef00be2fef00002def00ce
:10246800a02fef00a42fef00a62fef00a82fef005a
:10247800aa2fef00ae2fef00b02fef00b22fef0022
:102488001200200080072000a109200053f8200036
:10249800804978008149780082497800120020003c
:1024a800600420007105200043f82000804978006e
:1024b800814978008249780000000000207c800073
:1024c800610060000000e000fcff3a00000000002e
:1024d800217c800000022000008060000000e000f5
:1024e800fbff32000080fa00000006000000fa003e
:1024f800707c8000ee800a00000000000080fb0075
:1025080000f0a7000000ea000000ea004f00de002b
:10251800004078000080fa00000006000000fa0081
:10252800062eef00222eef003e2eef005a2eef006f
:10253800f001200010708800d0ff2f00f070880094
:10254800f0ff2d00d0718800f0fb2f00b0728800da
:102558000c2eef00282eef00442eef00602eef0027
:102568000a2eef00262eef00422eef005e2eef001f
:10257800082eef00242eef00402eef005c2eef0017
:10258800f00120000070880050382000e0708800ba
:10259800f00c2000c071880000c02200a0728800e2
:1025a8000000eb0051052000b1468800a10a200078
:1025b800b14688000068880090c3b3002dedb700cd
:1025c8005100200050210a00a60d000080c3b3006e
:1025d8002cedb70061002000d8210a00980d0000fa
:1025e8000080200051052000b1468800a10a200083
:1025f800b1468800006888000080fa0000000600e4
:102608000200fa00000f780021028000200f20004d
:10261800008060001e007000200288000080fa0020
:10262800000006000000fa00c3e8a800000000004f
:10263800000000000080fa00000006000000fa0018
:10264800b6ff070073ff07003d000700a7fd07005e
:10265800f4ff070000022000e9ff07000080fa00ed
:042668000000060068
:020000040000fa
:10266c000a1000002000000080000000061000008e
:10267c000200000082000000ffff000008100000b4
:10268c0002000000800000002a1000001000000072
:10269c008000000000100000060000008000000018
:0426ac00000000002a
:020000040000fa
:1026b000f03fb1000180b10006003500ee030900d3
:1026c00000000000403fb1000180b100fbff3d0071
:1026d0001000b000203fb00002003500008009006b
:0826e0000000000000000600ec
:020000040000fa
:1026e8000200fa00000f78009e0078003180880010
:1026f800ffff37000000fa00a000210080077800e3
:1027080020022100000188000080fa000000060075
:102718000200fa00004f78001e4178008100210075
:1027280082487800920021001100200080002100da
:1027380001fe070009d0bf000080fa000000060073
:0c2748000000fa000080fa00000006000b
:020000040000fa
:020000040005f5
:047e0000ffff000080
:020000040000fa
:020000040005f5
:047e2000ffffff0061
:020000040000fa
:020000040005f5
:047e300078ffff00d8
:020000040000fa
:020000040005f5
:047e38007fffff00c9
:020000040000fa
:020000040005f5
:047e40006003ff00dc
:020000040000fa
:020000040005f5
:047e4800ffffff0039
:020000040000fa
:020000040005f5
:047e5000deffff0052
:020000040000fa
:020000040005f5
:047e58000000ff0027
:020000040000fa
:020000040005f5
:047e60000000ff001f
:020000040000fa
:020000040005f5
:047e68000000ff0017
:020000040000fa
:020000040005f5
:047e70000000ff000f
:020000040000fa
:020000040005f5
:047e7800ffffff0009
:020000040000fa
:020000040005f5
:047e8000fffcff0004
:020000040000fa
:020000040005f5
:047e8800ffffff00f9
:020000040000fa
:020000040005f5
:047ff800ffffff0088
:020000040000fa
:020000040100f9
:04300000ffffff00cf
:00000001FF
